:0100030022DA
:10081C00D3EF9400EE940040147D6E7C00ED1D70BF
:0D082C00011CED4C70F7EF1F70E61E80E31D
:01083900229C
:0A08EE00D292120003D2930200031D
:0C08E200D292D293120003C292020003D3
:0F08B900C292120003D293120003D292020003E4
:10085800E4F544D29312000330920BE544C394FFAD
:0B0868005004054480F2C2930200031C
:100781008F45E4F544E54525E0F545C293120003A4
:100791009292120003D2931200030544E544C394DC
:0D07A1000840E2C293120003D2920200034E
:10075200C293120003D292E4F544D293120003E54D
:100762004525E0FFA292E4334FF545C29312000300
:0E0772000544E544C3940840E1120003AF457E
:010780002256
:1007D9008F428D431208E27F01120781120858AF38
:1007E90042120781120858AF4312078112085802B2
:0207F90008B93D
:0207AE008F4278
:1007B0001208E27F01120781120858AF4212078126
:1007C0001208581208E27F02120781120858120715
:0807D000528F431208B9AF4338
:0107D80022FE
:10057C001208EE7F147E0012081C7D207F011207EA
:10058C00D97F147E0012081C7D6E7F031207D97F61
:10059C00147E0012081C7F807E2512083A1208C8AF
:1005AC00D2AFC2B27F007E1312088C8F1A7F327EBC
:1005BC000012081CE547B401FB7F011207AE8F4601
:1005CC007F147E0012081CE546B420E8D291D2902C
:0A05DC00E4F5477F021207AE80DA53
:1000260000C1814001C0804101C0804100C18140C2
:1000360001C0804100C1814000C1814001C08041B2
:1000460001C0804100C1814000C1814001C08041A2
:1000560000C1814001C0804101C0804100C1814092
:1000660001C0804100C1814000C1814001C0804182
:1000760000C1814001C0804101C0804100C1814072
:1000860000C1814001C0804101C0804100C1814062
:1000960001C0804100C1814000C1814001C0804152
:1000A60001C0804100C1814000C1814001C0804142
:1000B60000C1814001C0804101C0804100C1814032
:1000C60000C1814001C0804101C0804100C1814022
:1000D60001C0804100C1814000C1814001C0804112
:1000E60000C1814001C0804101C0804100C1814002
:1000F60001C0804100C1814000C1814001C08041F2
:1001060001C0804100C1814000C1814001C08041E1
:1001160000C1814001C0804101C0804100C18140D1
:1001260000C0C101C30302C2C60607C705C5C40491
:10013600CC0C0DCD0FCFCE0E0ACACB0BC90908C801
:10014600D81819D91BDBDA1A1EDEDF1FDD1D1CDCF1
:1001560014D4D515D71716D6D21213D311D1D01061
:10016600F03031F133F3F23236F6F737F53534F451
:100176003CFCFD3DFF3F3EFEFA3A3BFB39F9F838C1
:1001860028E8E929EB2B2AEAEE2E2FEF2DEDEC2CB1
:10019600E42425E527E7E62622E2E323E12120E021
:1001A600A06061A163A3A26266A6A767A56564A411
:1001B6006CACAD6DAF6F6EAEAA6A6BAB69A9A86881
:1001C60078B8B979BB7B7ABABE7E7FBF7DBDBC7C71
:1001D600B47475B577B7B67672B2B373B17170B0E1
:1001E60050909151935352929656579755959454D1
:1001F6009C5C5D9D5F9F9E5E5A9A9B5B9959589841
:10020600884849894B8B8A4A4E8E8F4F8D4D4C8C30
:1002160044848545874746868242438341818040A0
:1007FB00060E010203040506061B060708090A0B71
:10080B0006080B0C0D0E0F100614101112131415F5
:0A05E6008B3D8A3E893F8C408D4119
:1005F0007FFF7DFFE5411541AA40700215404A602A
:1006000023AB3D053FE53FAA3E7002053E14F912BB
:1006100008736FFB7A00900026936DFFEB90012624
:0806200093FD80D0EFFEEDFF19
:0106280022AF
:1006E400EF5407F9ED1460071470087C0E80077C42
:1006F4001B80037F0222EF7803CEC313CE13D8F9F5
:100704002CF8E6FFAE01A806088002C313D8FC301B
:07071400E0037F01227F00DA
:01071B0022BB
:10071C008B3D8A3E893FC2ACAF051DEF6025C29967
:10072C00AB3DAA3EA93F120873A2D0929B053FE5B0
:10073C003F7002053E14F9120873F5993099FDC209
:06074C009980D5D2AC2219
:040226008F378D3849
:10022A00E53764017024E538B4021F7F011207AE76
:10023A008F467F147E0012081CE546B42007D2912F
:10024A00E4F5478005C291754701E537B4020AE52E
:10025A0038B40105D291E4F547E53764037024E523
:10026A0038B4021F7F011207AE8F467F147E001238
:10027A00081CE546B42007D290E4F5478005C290F1
:10028A00754701E537B4040AE538B40105D290E4AC
:10029A00F547E53764057029E538640270237F0164
:1002AA001207AE8F467F147E0012081CE546B42062
:1002BA0009D291D290E4F5478007C291C29075475E
:1002CA0001E537B4060CE538B40107D291D290E4BF
:1002DA00F547E4F53A753B22E53B04F8E6F53C7B45
:1002EA00017A00D3EB9538EA94005052053AE53B7F
:1002FA002402253AF8E4F6F539AF377E00AD3C1210
:10030A0006E4AE39EFA806088002C333D8FCFFE53D
:10031A003B2402253AF8E64FF605370BBB00010AE3
:10032A00D3EB9538EA940050090539E539C39408A6
:10033A0040C7EB1B70011A0BBB00010A80A5E53B05
:10034A002402F8A63AA93B7A007B00E53A2403FD89
:10035A00E433FC1205E6AC06E53B2403253AF8A68D
:10036A0004E53B2404253AF8A607A93B7A007B005A
:08037A00E53A2405FD02071C11
:040382008F378D38EC
:100386007F031207AE8F317F017E0012000E7F0AB7
:100396007E0012081CE4FFFE12000E7F0A7E001289
:1003A600081CE4FDFFFE1208A37F0A7E0012081C4B
:1003B600AD317F017E001208A37F0A7E0012081C61
:1003C600753A22E53825E0FFE53A2402F8A607E566
:1003D6003725E0F537E4F539E539C395385030AFC0
:1003E6003705377E0012088CE53A2403F8E53925EF
:1003F600E028F8A607AF3705377E0012088CE53AE5
:100406002404F8E53925E028F8A607053980C9E56A
:100416003875F002A42403FDE435F0FCA93A7A000D
:100426007B001205E6AC06E53A2403F8E53825E03C
:1004360028F8A604E53A2404F8E53825E028F8A6C5
:1004460007A93A7A007B00E53825E02405FD020776
:010456001C89
:1006A700753722E5234401FEE53704F8A606E5374A
:1006B7002402F8A607A9377A007B007D037C001285
:1006C70005E6AC06E5372403F8A604E5372404F865
:0D06D700A607A9377A007B00AD2102071CA1
:10045700753622AD21A836E6651A60030204ECED75
:10046700D3940350030204EFED24FE2536F8E67516
:100477003300F532ED142536F8E64233E4A936FAAF
:10048700FBED24FEFDE434FFFC1205E6EF65337057
:1004970003EE6532704FE5362403F8E6F534E536AA
:1004A7002405F8E6F535E534C394305033E53604D2
:1004B700F8E624FE600914600F2402701F8000AD67
:1004C70035AF34120226801DE535D39409400280EA
:1004D700141534AD35AF3412038280097F81800251
:0804E7007F821206A7E4F52153
:0104EF0022EA
:0D08C800758AFF758C48D2AFC2A9D28C2270
:10083A008E428F43E5A2543FF5A275985075D72092
:0E084A0075D6FE758E14438E01D2ACD2AF224D
:03002300020629A9
:10062900C0E0C0D075D000309830D3E530648094F4
:1006390082400CD3E530648094845003752100E531
:1006490021D394144003752100AF21052174222F71
:0F065900F8A699753000C298D2A9D0D0D0E0325F
:03000B0002066882
:10066800C0E0C0F0C083C082C0D075D000758AFFDA
:10067800758C48C2A90530D3E53064809484401055
:10068800E521600CD2B2120457C2B2752100800273
:0F069800D2A9C28DD0D0D082D083D0F0D0E032A2
:0D08D500E4F5C7F5C5F5C675C380F5C4226E
:10088C0075C78275C5018FC48EC375C65A75C6A54A
:06089C0000AFC21208D5F6
:0108A2002233
:1008A30075C78275C5028FC48EC38DC275C65A754E
:0608B300C6A5000208D5F5
:10000E0075C78275C5038FC48EC375C65A75C6A5CE
:04001E00000208D5FF
:030000000204F007
:0C04F000787FE4F6D8FD758147020537DF
:10087300BB010689828A83E0225002E722BBFE0283
:09088300E32289828A83E49322B6
:1004FC0002057CE493A3F8E493A34003F68001F295
:10050C0008DFF48029E493A3F85407240CC8C33300
:10051C00C4540F4420C8834004F456800146F6DFCF
:10052C00E4800B01020408102040809007FBE47E5D
:10053C00019360BCA3FF543F30E509541FFEE493C4
:10054C00A360010ECF54C025E060A840B8E493A38B
:10055C00FAE493A3F8E493A3C8C582C8CAC583CAB6
:10056C00F0A3C8C582C8CAC583CADFE9DEE780BE6E
:01081B0000DC
:00000001FF
